:020000040800F2
:1000000000280020790B0008490900084F09000862
:10001000550900085B09000861090008000000009C
:100020000000000000000000000000006709000858
:1000300073090008000000007F0900088B09000810
:10004000C10B0008C10B0008C10B0008C10B000860
:10005000C10B0008C10B0008C10B0008C10B000850
:10006000C10B0008C10B0008C10B0008C10B000840
:10007000C10B0008C10B0008C10B0008C10B000830
:10008000C10B0008C10B0008C10B0008C10B000820
:10009000C10B0008C10B0008C10B0008C10B000810
:1000A000C10B0008C10B0008C10B0008C10B000800
:1000B00099090008C10B000800000000C10B0008EE
:1000C000C10B00080000000000000000C10B000888
:1000D00000000000C10B0008AD090008000000008E
:1000E000C10B0008C10B0008C10B00080000000094
:1000F0000000000000000000000000000000000000
:0C01000000000000000000005FF808F1A3
:10010C0010B5054C237833B9044B13B10448AFF345
:10011C0000800123237010BD70000020000000003F
:10012C00603B000808B5034B1BB103490348AFF310
:10013C00008008BD0000000074000020603B000837
:10014C0080B500AF00F038FD00F03EF800F0EEF89E
:10015C0000F076F800F0C0F8144801F063FD0122BD
:10016C004FF47871124801F0C1F8C82300221149EC
:10017C00002000F01FFA642302220F49012000F036
:10018C0019FA322303220D49022000F013FA9623A8
:10019C0005220B49032000F00DFAFA230722094926
:1001AC00042000F007FA00F0DDFAFCE7F000002074
:1001BC00000801400D0B0008210B0008350B00084E
:1001CC00490B0008610B000880B590B000AF07F137
:1001DC00180328220021184602F0DEFC3B1D0022E9
:1001EC001A605A609A60DA601A610223BB610123BB
:1001FC00BB621023FB6200237B6307F118031846D4
:10020C0001F0A6F80346002B01D000F0D9F80F231B
:10021C007B600023BB600023FB6000233B61002359
:10022C007B613B1D0021184601F012FB0346002B9D
:10023C0001D000F0C5F800BF4037BD4680BD0000BE
:10024C0080B586B000AF07F1080300221A605A602F
:10025C009A60DA603B4600221A605A601D4B4FF0E0
:10026C0080421A601B4B41F63F725A60194B0022B8
:10027C009A60184B0922DA60164B00221A61154B52
:10028C0000229A61134801F07DFC0346002B01D03B
:10029C0000F096F84FF48053BB6007F10803194641
:1002AC000C4801F013FE0346002B01D000F088F837
:1002BC0000233B6000237B603B461946054801F058
:1002CC00DBFF0346002B01D000F07AF800BF183793
:1002DC00BD4680BDF000002080B500AF114B124A26
:1002EC001A60104B4FF416525A600E4B00229A6053
:1002FC000C4B0022DA600B4B00221A61094B0C22CA
:10030C005A61084B00229A61064B0022DA610548BB
:10031C0002F01CF80346002B01D000F051F800BF8E
:10032C0080BD00BF380100200044004080B586B07D
:10033C0000AF07F1080300221A605A609A60DA6075
:10034C00184B9B69174A43F010039361154B9B693B
:10035C0003F010037B607B68124B9B69114A43F0DE
:10036C00040393610F4B9B6903F004033B603B68F0
:10037C0000224FF478710C4800F0B8FF4FF47873FA
:10038C00BB600123FB6000233B6102237B6107F10F
:10039C0008031946044800F02FFE00BF1837BD466D
:1003AC0080BD00BF001002400008014080B582B043
:1003BC0000AF786000F024F900BF0837BD4680BD5F
:1003CC0080B400AF72B600BFFEE7000080B582B00B
:1003DC0000AF184B1B6D1946174802F0E5FB154B87
:1003EC001B6D002B03D1154802F064FC1FE00023A9
:1003FC007B6017E07968124802F0D6FB0D4A7B68E7
:10040C001B0113440D331B7819460A4A7B681B01E8
:10041C00134404331B681A460A4802F0C5FB7B6878
:10042C0001337B60034B1B6D7A689A42E2DB083721
:10043C00BD4680BD9C000020783B0008903B000826
:10044C00A43B0008B43B000890B589B000AF3C4613
:10045C0084E80F00554B1B6D002B0BD1534B1C46E6
:10046C003B460FCB84E80F00504B1B6D01334F4ABA
:10047C00136598E00023FB614C4B5B68BB614B4BF5
:10048C005B687B6112E0FB690133FB61474B1B6DC1
:10049C00FA699A420ADA7B69BB61444AFB691B011F
:1004AC00134404331A687B6913447B613F4B1B6D07
:1004BC00FA699A4203DA7A687B699A42E3D83B4B31
:1004CC001B6DFA699A4212D17A687B69D31A7B60E8
:1004DC00364AFB691B0113441C463B460FCB84E890
:1004EC000F00324B1B6D0133304A13655BE02F4B11
:1004FC001B6D3B610FE03B69013B2C493A691201D2
:10050C0011442A4A1B0113440C460FCB84E80F00FC
:10051C003B69013B3B613A69FB699A42EBDCFB6945
:10052C00002B0DD1214AFB691B0113441C463B4691
:10053C000FCB84E80F0000237B617B68BB6112E06A
:10054C007A68BB69D31A7B60BB697B617A68BB69CB
:10055C001344BB61154AFB691B0113441C463B4603
:10056C000FCB84E80F00FB690133104A1B011344C5
:10057C0004331A687B6913447B617A69BB69D21AAC
:10058C00FB6901331146094A1B01134404331960FA
:10059C00064B1B6D0133054A1365F969044802F0DB
:1005AC0003FBFFF713FF2437BD4690BD9C000020D2
:1005BC00D03B000880B588B000AFB9607A603B6072
:1005CC000346FB730C4B1B6D042B03DD0B4B012201
:1005DC001A700EE0BB683B617B687B613B68BB615A
:1005EC0000233B77FB7B7B7707F110030FCBFFF7E7
:1005FC002BFF2037BD4680BD9C0000208C000020C6
:10060C0080B400AF114B1B68002B03D1104B03229D
:10061C001A7017E00D4B5B68002B0ED10B4B1B7B3C
:10062C000133DAB2094B1A73084B9B68002B09D0C3
:10063C00064B9B68054A536004E0044B5B68013B26
:10064C00024A536000BFBD4680BC70479C0000202E
:10065C008C00002090B587B000AF00237B61002395
:10066C003B612A4A7B691B01134408331B68002B2E
:10067C001AD001233B61254A7B691B0113443C467C
:10068C000FCB84E80F000FE07B6901331F497A69B7
:10069C00120111441D4A1B0113440C460FCB84E874
:1006AC000F007B6901337B61184B1B6D013B7A6931
:1006BC009A42E9DB154A7B691B01134400221A603C
:1006CC00124A7B691B011344043300221A600F4A3F
:1006DC007B691B011344083300221A600B4A7B69A7
:1006EC001B0113440C3300221A70084B1B6D013B89
:1006FC00064A13653B69012B03D13B460FCBFFF731
:10070C00A3FE00BF1C37BD4690BD00BF9C0000205F
:10071C0080B500AF0F4B1B78002B16D00D4B1B7800
:10072C00032B0ED0032B13DC012B02D0022B04D095
:10073C000EE0094802F0BEFA0AE0084802F0BAFAE4
:10074C0006E0074802F0B6FA02E0FFF73FFEFFE7CB
:10075C0000BF80BD8C000020E43B0008FC3B00087F
:10076C00183C000880B582B000AF0023FB712FE06D
:10077C00FB791C4A1B0113440C331B78002B24D02F
:10078C00FB79184A1B0113440D331B781946FB796E
:10079C001A46154802F008FAFB79124A1B01134459
:1007AC001B689847FB790F4A1B0113440C331A78CA
:1007BC00FB79013AD1B20B4A1B0113440C330A46A4
:1007CC001A70FB791846FFF745FFFB790133FB7173
:1007DC00FB79042BCCD9FFF79BFF00BF0837BD4634
:1007EC0080BD00BF9C000020343C000880B485B064
:1007FC0000AF154B9B69144A43F001039361124BF4
:10080C009B6903F00103BB60BB680F4BDB690E4AAD
:10081C0043F08053D3610C4BDB6903F080537B6056
:10082C007B680A4B5B68FB60FB6823F0E063FB6052
:10083C00FB6843F08063FB60044AFB68536000BFB5
:10084C001437BD4680BC70470010024000000140C8
:10085C0080B584B000AF78607B681B68B3F1804FC3
:10086C0013D10C4BDB690B4A43F00103D361094BE9
:10087C00DB6903F00103FB60FB68002200211C20F4
:10088C0000F0D3FA1C2000F0ECFA00BF1037BD4684
:10089C0080BD00BF0010024080B588B000AF78600A
:1008AC0007F1100300221A605A609A60DA607B68C4
:1008BC001B681F4A934237D11E4BDB691D4A43F418
:1008CC000033D3611B4BDB6903F40033FB60FB6823
:1008DC00184B9B69174A43F004039361154B9B69B2
:1008EC0003F00403BB60BB6804233B6102237B6100
:1008FC000323FB6107F1100319460F4800F07CFB42
:10090C0008233B6100237B610023BB6107F11003CB
:10091C001946094800F070FB00220021262000F047
:10092C0084FA262000F09DFA00BF2037BD4680BD1A
:10093C0000440040001002400008014080B400AFA9
:10094C00FEE780B400AFFEE780B400AFFEE780B4F2
:10095C0000AFFEE780B400AFFEE780B400AF00BF8D
:10096C00BD4680BC704780B400AF00BFBD4680BCA4
:10097C00704780B400AF00BFBD4680BC704780B5E7
:10098C0000AF00F05FF900BF80BD000080B500AF84
:10099C00024801F093F900BF80BD00BFF0000020B9
:1009AC0080B500AF024801F01FFD00BF80BD00BF45
:1009BC003801002080B586B000AFF860B9607A606D
:1009CC0000237B610AE0AFF300800146BB685A1C30
:1009DC00BA60CAB21A707B6901337B617A697B6831
:1009EC009A42F0DB7B6818461837BD4680BD80B54F
:1009FC0086B000AFF860B9607A6000237B6109E0D3
:100A0C00BB685A1CBA601B781846AFF300807B6930
:100A1C0001337B617A697B689A42F1DB7B6818460B
:100A2C001837BD4680BD80B483B000AF78604FF0FE
:100A3C00FF3318460C37BD4680BC704780B483B07A
:100A4C0000AF786039603B684FF400525A60002365
:100A5C0018460C37BD4680BC704780B483B000AFDD
:100A6C007860012318460C37BD4680BC704780B4B3
:100A7C0085B000AFF860B9607A600023184614376F
:100A8C00BD4680BC7047000080B586B000AF786072
:100A9C00144A154BD31A7B617B693B61134B1B6862
:100AAC00002B02D1114B124A1A60104B1A687B684A
:100ABC0013443A699A4207D202F044F803460C22D6
:100ACC001A604FF0FF3309E0084B1B68FB60074BC3
:100ADC001A687B681344054A1360FB68184618377C
:100AEC00BD4680BD002800200004000090000020BE
:100AFC009001002080B400AF00BFBD4680BC7047A1
:100B0C0080B500AF2021024800F008FC00BF80BD7A
:100B1C000008014080B500AF4021024800F0FEFB08
:100B2C0000BF80BD0008014080B500AF80210248A5
:100B3C0000F0F4FB00BF80BD0008014080B500AFA1
:100B4C004FF48071024800F0E9FB00BF80BD00BF8C
:100B5C000008014080B500AF4FF40071024800F06E
:100B6C00DDFB00BF80BD00BF000801400C480D49F3
:100B7C000D4A002302E0D458C4500433C4188C42EC
:100B8C00F9D30A4A0A4C002301E013600432A24252
:100B9C00FBD3FFF7AFFF01F0DBFFFFF7D1FA704794
:100BAC000000002070000020243D00087000002090
:100BBC0090010020FEE7000080B500AF084B1B68D9
:100BCC00074A43F010031360032000F023F90F20B1
:100BDC0000F008F8FFF70AFE0023184680BD00BF9E
:100BEC000020024080B582B000AF7860124B1A68CA
:100BFC00124B1B7819464FF47A73B3FBF1F3B2FB2B
:100C0C00F3F3184600F03BF90346002B01D0012307
:100C1C000EE07B680F2B0AD8002279684FF0FF306A
:100C2C0000F003F9064A7B681360002300E00123FF
:100C3C0018460837BD4680BD000000200800002083
:100C4C000400002080B400AF054B1B781A46054BFE
:100C5C001B681344034A136000BFBD4680BC704739
:100C6C00080000207C01002080B400AF024B1B6800
:100C7C001846BD4680BC70477C01002080B485B00E
:100C8C0000AF78607B6803F00703FB600C4BDB68FC
:100C9C00BB60BA684FF6FF031340BB60FB681A02D7
:100CAC00BB68134343F0BF6343F40033BB60044A97
:100CBC00BB68D36000BF1437BD4680BC704700BF13
:100CCC0000ED00E080B400AF044BDB681B0A03F0BE
:100CDC0007031846BD4680BC704700BF00ED00E01E
:100CEC0080B483B000AF0346FB7197F90730002B3B
:100CFC000BDBFB7903F01F02064997F907305B0900
:100D0C00012000FA02F241F8232000BF0C37BD4647
:100D1C0080BC704700E100E080B483B000AF0346B4
:100D2C003960FB7197F90730002B0ADB3B68DAB2AC
:100D3C000C4997F907301201D2B20B4483F8002307
:100D4C000AE03B68DAB20849FB7903F00F03043B75
:100D5C001201D2B20B441A7600BF0C37BD4680BCD0
:100D6C00704700BF00E100E000ED00E080B489B006
:100D7C0000AFF860B9607A60FB6803F00703FB61B1
:100D8C00FB69C3F10703042B28BF0423BB61FB6978
:100D9C000433062B02D9FB69033B00E000237B6183
:100DAC004FF0FF32BB6902FA03F3DA43BB681A4017
:100DBC007B699A404FF0FF317B6901FA03F3D94309
:100DCC007B680B40134318462437BD4680BC7047E4
:100DDC0080B582B000AF78607B68013BB3F1807F57
:100DEC0001D301230FE00A4A7B68013B53600F21BA
:100DFC004FF0FF30FFF790FF054B00229A60044B39
:100E0C0007221A60002318460837BD4680BD00BF74
:100E1C0010E000E080B582B000AF78607868FFF732
:100E2C002DFF00BF0837BD4680BD80B586B000AF32
:100E3C000346B9607A60FB7300237B61FFF742FFC6
:100E4C0078617A68B9687869FFF790FF024697F97C
:100E5C000F3011461846FFF75FFF00BF1837BD462D
:100E6C0080BD80B582B000AF0346FB7197F90730A7
:100E7C001846FFF735FF00BF0837BD4680BD80B56B
:100E8C0082B000AF78607868FFF7A2FF034618467F
:100E9C000837BD4680BD80B485B000AF78600023B4
:100EAC00FB737B6893F82130022B08D07B680422FB
:100EBC009A637B68002283F82020012320E07B6862
:100ECC001B681A687B681B6822F00E021A607B682C
:100EDC001B681A687B681B6822F001021A607B6829
:100EEC001A6C7B68DB6B012101FA02F25A607B6899
:100EFC00012283F821207B68002283F82020FB7BD1
:100F0C0018461437BD4680BC7047000080B584B0CD
:100F1C0000AF78600023FB737B6893F82130022BC1
:100F2C0005D07B6804229A630123FB7351E07B6834
:100F3C001B681A687B681B6822F00E021A607B68BB
:100F4C001B681A687B681B6822F001021A607B68B8
:100F5C001B68224A934229D07B681B68204A934223
:100F6C0022D07B681B681F4A93421AD07B681B688F
:100F7C001D4A934212D07B681B681C4A93420AD0CC
:100F8C007B681B681A4A934202D14FF480130EE01F
:100F9C004FF080730BE04FF4803308E04FF4805334
:100FAC0005E04FF4807302E0102300E00123114AA6
:100FBC0053607B68012283F821207B68002283F830
:100FCC0020207B685B6B002B03D07B685B6B7868A5
:100FDC009847FB7B18461037BD4680BD0800024081
:100FEC001C00024030000240440002405800024005
:100FFC006C0002400000024080B48BB000AF7860FF
:10100C00396000237B6200233B6248E101227B6A4A
:10101C0002FA03F3FB613B681B68FA691340BB617E
:10102C00BA69FB699A4240F037813B685B68A34A16
:10103C0093425ED0A14A934275D8A14A934258D0AC
:10104C009F4A93426FD89F4A934252D09D4A9342F3
:10105C0069D89D4A93424CD09B4A934263D89B4A91
:10106C00934246D0994A93425DD8122B2AD8122B20
:10107C0059D801A252F823F0FF100008D91000082B
:10108C00EB1000082D110008331100083311000873
:10109C003311000833110008331100083311000814
:1010AC003311000833110008331100083311000804
:1010BC00331100083311000833110008E110000847
:1010CC00F5100008824A934213D02CE03B68DB6891
:1010DC003B6229E03B68DB6804333B6224E03B68FD
:1010EC00DB6808333B621FE03B68DB680C333B6218
:1010FC001AE03B689B68002B02D104233B6213E08F
:10110C003B689B68012B05D108233B627B68FA691D
:10111C001A6109E008233B627B68FA695A6103E0B3
:10112C0000233B6200E000BFBB69FF2B01D87B684A
:10113C0001E07B6804337B61BB69FF2B02D87B6ABF
:10114C009B0002E07B6A083B9B003B617B691A6851
:10115C000F213B6901FA03F3DB431A40396A3B69FF
:10116C0001FA03F31A437B691A603B685B6803F06E
:10117C008053002B00F09080564B9B69554A43F0EE
:10118C0001039361534B9B6903F00103BB60BB6884
:10119C00514A7B6A9B08023352F82330FB607B6A0E
:1011AC0003F003039B000F2202FA03F3DB43FA68FC
:1011BC001340FB607B68494A93420DD07B68484AD8
:1011CC00934207D07B68474A934201D1022304E043
:1011DC00032302E0012300E000237A6A02F00302F9
:1011EC0092009340FA681343FB603B497B6A9B086F
:1011FC000233FA6841F823203B685B6803F48033C0
:10120C00002B06D0384B1A683749BB6913430B6067
:10121C0006E0354B1A68BB69DB43334913400B605E
:10122C003B685B6803F40033002B06D02E4B5A68E6
:10123C002D49BB6913434B6006E02B4B5A68BB69C5
:10124C00DB43294913404B603B685B6803F4801314
:10125C00002B06D0244B9A682349BB6913438B603F
:10126C0006E0214B9A68BB69DB431F4913408B6036
:10127C003B685B6803F40013002B06D01A4BDA684A
:10128C001949BB691343CB6006E0174BDA68BB699D
:10129C00DB4315491340CB607B6A01337B623B68AF
:1012AC001A687B6A22FA03F3002B7FF4AFAE00BFFF
:1012BC0000BF2C37BD4680BC704700BF0000321009
:1012CC00000031100000221000002110000012104C
:1012DC000000111000100240000001400008014005
:1012EC00000C0140001001400004014080B483B0A8
:1012FC0000AF78600B467B8013467B707B78002BAD
:10130C0003D07A887B681A6103E07B881A047B68B7
:10131C001A6100BF0C37BD4680BC704780B485B0E5
:10132C0000AF78600B467B807B68DB68FB607A885B
:10133C00FB6813401A04FB68D9437B880B401A43A3
:10134C007B681A6100BF1437BD4680BC7047000033
:10135C0080B586B000AF78607B68002B01D101238B
:10136C006CE27B681B6803F00103002B00F08780A4
:10137C00924B5B6803F00C03042B0CD08F4B5B6817
:10138C0003F00C03082B12D18C4B5B6803F48033F5
:10139C00B3F5803F0BD1894B1B6803F40033002B52
:1013AC006CD07B685B68002B68D1012346E27B68BC
:1013BC005B68B3F5803F06D1804B1B687F4A43F4D2
:1013CC00803313602EE07B685B68002B0CD17B4B69
:1013DC001B687A4A23F480331360784B1B68774A76
:1013EC0023F4802313601DE07B685B68B3F5A02FAA
:1013FC000CD1724B1B68714A43F4802313606F4B02
:10140C001B686E4A43F4803313600BE06B4B1B6814
:10141C006A4A23F480331360684B1B68674A23F4D1
:10142C00802313607B685B68002B13D0FFF71CFCD8
:10143C00386108E0FFF718FC02463B69D31A642BAD
:10144C0001D90323FAE15D4B1B6803F40033002B35
:10145C00F0D014E0FFF708FC386108E0FFF704FC5B
:10146C0002463B69D31A642B01D90323E6E1534BA3
:10147C001B6803F40033002BF0D100E000BF7B6845
:10148C001B6803F00203002B63D04C4B5B6803F02A
:10149C000C03002B0BD0494B5B6803F00C03082B9F
:1014AC001CD1464B5B6803F48033002B16D1434BA5
:1014BC001B6803F00203002B05D07B681B69012B12
:1014CC0001D00123BAE13D4B1B6823F0F8027B6885
:1014DC005B69DB00394913430B603AE07B681B699D
:1014EC00002B20D0364B01221A60FFF7BDFB386170
:1014FC0008E0FFF7B9FB02463B69D31A022B01D96E
:10150C0003239BE12D4B1B6803F00203002BF0D04F
:10151C002A4B1B6823F0F8027B685B69DB002749C8
:10152C0013430B6015E0264B00221A60FFF79CFB5F
:10153C00386108E0FFF798FB02463B69D31A022B8F
:10154C0001D903237AE11D4B1B6803F00203002B26
:10155C00F0D17B681B6803F00803002B3AD07B6842
:10156C009B69002B19D0174B01221A60FFF77CFBEB
:10157C00386108E0FFF778FB02463B69D31A022B6F
:10158C0001D903235AE10D4B5B6A03F00203002BD4
:10159C00F0D0012000F0D8FA1CE00A4B00221A60AF
:1015AC00FFF762FB38610FE0FFF75EFB02463B6919
:1015BC00D31A022B08D9032340E100BF00100240CC
:1015CC0000004242800442429E4B5B6A03F00203DD
:1015DC00002BE9D17B681B6803F00403002B00F09F
:1015EC00A6800023FB75974BDB6903F08053002B1F
:1015FC000DD1944BDB69934A43F08053D361914BEB
:10160C00DB6903F08053BB60BB680123FB758E4B19
:10161C001B6803F48073002B18D18B4B1B688A4A10
:10162C0043F480731360FFF71FFB386108E0FFF78A
:10163C001BFB02463B69D31A642B01D90323FDE043
:10164C00814B1B6803F48073002BF0D07B68DB6844
:10165C00012B06D17B4B1B6A7A4A43F001031362C0
:10166C002DE07B68DB68002B0CD1764B1B6A754A2E
:10167C0023F001031362734B1B6A724A23F00403B9
:10168C0013621CE07B68DB68052B0CD16D4B1B6A6D
:10169C006C4A43F0040313626A4B1B6A694A43F0B9
:1016AC00010313620BE0674B1B6A664A23F00103CC
:1016BC001362644B1B6A634A23F0040313627B6856
:1016CC00DB68002B15D0FFF7CFFA38610AE0FFF783
:1016DC00CBFA02463B69D31A41F28832934201D9C4
:1016EC000323ABE0574B1B6A03F00203002BEED035
:1016FC0014E0FFF7B9FA38610AE0FFF7B5FA0246D1
:10170C003B69D31A41F28832934201D9032395E005
:10171C004C4B1B6A03F00203002BEED1FB7D012B1B
:10172C0005D1484BDB69474A23F08053D3617B6872
:10173C00DB69002B00F08180424B5B6803F00C03EB
:10174C00082B61D07B68DB69022B46D13F4B002212
:10175C001A60FFF789FA386108E0FFF785FA02464C
:10176C003B69D31A022B01D9032367E0354B1B6865
:10177C0003F00073002BF0D17B681B6AB3F5803F3C
:10178C0008D1304B5B6823F400327B689B682D4991
:10179C0013434B602B4B5B6823F474127B68196A00
:1017AC007B685B6A0B43274913434B60274B012231
:1017BC001A60FFF759FA386108E0FFF755FA02464C
:1017CC003B69D31A022B01D9032337E01D4B1B684D
:1017DC0003F00073002BF0D02FE01C4B00221A609A
:1017EC00FFF742FA386108E0FFF73EFA02463B6920
:1017FC00D31A022B01D9032320E0124B1B6803F0F0
:10180C000073002BF0D118E07B68DB69012B01D150
:10181C00012313E00B4B5B68FB60FB6803F4803225
:10182C007B681B6A9A4206D1FB6803F470127B68D2
:10183C005B6A9A4201D0012300E000231846183756
:10184C00BD4680BD00100240007000406000424266
:10185C0080B584B000AF786039607B68002B01D113
:10186C000123D0E06A4B1B6803F007033A689A42E5
:10187C0010D9674B1B6823F0070265493B6813437B
:10188C000B60634B1B6803F007033A689A4201D064
:10189C000123B8E07B681B6803F00203002B20D007
:1018AC007B681B6803F00403002B05D0594B5B6865
:1018BC00584A43F4E06353607B681B6803F00803E9
:1018CC00002B05D0534B5B68524A43F46053536072
:1018DC00504B5B6823F0F0027B689B684D491343C7
:1018EC004B607B681B6803F00103002B40D07B68C6
:1018FC005B68012B07D1474B1B6803F40033002BAB
:10190C0015D101237FE07B685B68022B07D1414B2B
:10191C001B6803F00073002B09D1012373E03D4BCE
:10192C001B6803F00203002B01D101236BE0394B40
:10193C005B6823F003027B685B68364913434B609A
:10194C00FFF792F9F8600AE0FFF78EF90246FB68A0
:10195C00D31A41F28832934201D9032353E02D4B21
:10196C005B6803F00C027B685B689B009A42EBD1CE
:10197C00274B1B6803F007033A689A4210D2244B9A
:10198C001B6823F0070222493B6813430B60204B72
:10199C001B6803F007033A689A4201D0012332E036
:1019AC007B681B6803F00403002B08D0194B5B68A1
:1019BC0023F4E0627B68DB68164913434B607B6859
:1019CC001B6803F00803002B09D0124B5B6823F44F
:1019DC0060527B681B69DB000E4913434B6000F0BF
:1019EC0021F802460B4B5B681B0903F00F030A49F5
:1019FC00CB5C22FA03F3094A1360094B1B681846A7
:101A0C00FFF7F0F8002318461037BD4680BD00BF25
:101A1C0000200240001002406C3C00080000002036
:101A2C000400002090B48AB000AF2A4B3C1D0FCBB1
:101A3C0084E80F0040F201233B800023FB6100236C
:101A4C00BB6100237B6200237B6100233B62224B42
:101A5C005B68FB61FB6903F00C03042B02D0082BC1
:101A6C0003D02DE01D4B3B622DE0FB699B0C03F07A
:101A7C000F0307F12802134413F8243C7B61FB6924
:101A8C0003F48033002B13D0134B5B685B0C03F017
:101A9C00010307F12802134413F8283CBB617B694E
:101AAC000E4A02FB03F2BB69B2FBF3F37B6204E068
:101ABC007B690B4A02FB03F37B627B6A3B6202E0AD
:101ACC00064B3B6200BF3B6A18462837BD4690BCAC
:101ADC00704700BF5C3C00080010024000127A0006
:101AEC0000093D0080B400AF024B1B681846BD4690
:101AFC0080BC70470000002080B500AFFFF7F2FFFC
:101B0C000246054B5B681B0A03F007030349CB5CD9
:101B1C0022FA03F3184680BD001002407C3C0008FA
:101B2C0080B500AFFFF7DEFF0246054B5B68DB0AB2
:101B3C0003F007030349CB5C22FA03F3184680BD7C
:101B4C00001002407C3C000880B485B000AF786087
:101B5C000A4B1B680A4AA2FB03235B0A7A6802FB46
:101B6C0003F3FB6000BFFB685A1EFA60002BF9D12F
:101B7C0000BF00BF1437BD4680BC7047000000207A
:101B8C00D34D621080B582B000AF78607B68002BBB
:101B9C0001D1012341E07B6893F83D30DBB2002B8F
:101BAC0006D17B68002283F83C207868FEF750FE53
:101BBC007B68022283F83D207B681A687B680433BB
:101BCC001946104600F06AFA7B68012283F8462019
:101BDC007B68012283F83E207B68012283F83F203A
:101BEC007B68012283F840207B68012283F8412026
:101BFC007B68012283F842207B68012283F8432012
:101C0C007B68012283F844207B68012283F84520FD
:101C1C007B68012283F83D20002318460837BD4617
:101C2C0080BD000080B485B000AF78607B6893F80D
:101C3C003D30DBB2012B01D0012335E07B68022261
:101C4C0083F83D207B681B68DA687B681B6842F070
:101C5C000102DA607B681B68164A934209D07B68E4
:101C6C001B68B3F1804F04D07B681B68124A934207
:101C7C0011D17B681B689B6803F00703FB60FB6852
:101C8C00062B10D07B681B681A687B681B6842F0B7
:101C9C0001021A6007E07B681B681A687B681B6886
:101CAC0042F001021A60002318461437BD4680BC6E
:101CBC00704700BF002C01400004004080B582B08A
:101CCC0000AF78607B681B681B6903F00203022B72
:101CDC0022D17B681B68DB6803F00203022B1BD14B
:101CEC007B681B686FF002021A617B6801221A770D
:101CFC007B681B689B6903F00303002B03D0786897
:101D0C0000F0B1F905E0786800F0A4F9786800F00B
:101D1C00B3F97B6800221A777B681B681B6903F098
:101D2C000403042B22D17B681B68DB6803F00403DB
:101D3C00042B1BD17B681B686FF004021A617B6853
:101D4C0002221A777B681B689B6903F44073002B93
:101D5C0003D0786800F087F905E0786800F07AF92C
:101D6C00786800F089F97B6800221A777B681B6819
:101D7C001B6903F00803082B22D17B681B68DB6806
:101D8C0003F00803082B1BD17B681B686FF008025B
:101D9C001A617B6804221A777B681B68DB6903F085
:101DAC000303002B03D0786800F05DF905E0786838
:101DBC0000F050F9786800F05FF97B6800221A7720
:101DCC007B681B681B6903F01003102B22D17B6806
:101DDC001B68DB6803F01003102B1BD17B681B689E
:101DEC006FF010021A617B6808221A777B681B68F7
:101DFC00DB6903F44073002B03D0786800F033F9EF
:101E0C0005E0786800F026F9786800F035F97B6811
:101E1C0000221A777B681B681B6903F00103012BF6
:101E2C000ED17B681B68DB6803F00103012B07D123
:101E3C007B681B686FF001021A617868FEF7B6FACE
:101E4C007B681B681B6903F08003802B0ED17B68B9
:101E5C001B68DB6803F08003802B07D17B681B6851
:101E6C006FF080021A61786800F067FA7B681B6873
:101E7C001B6903F04003402B0ED17B681B68DB68A9
:101E8C0003F04003402B07D17B681B686FF04002C6
:101E9C001A61786800F0F9F87B681B681B6903F01D
:101EAC002003202B0ED17B681B68DB6803F020031A
:101EBC00202B07D17B681B686FF020021A617868B1
:101ECC0000F032FA00BF0837BD4680BD80B584B043
:101EDC0000AF786039607B6893F83C30012B01D1FE
:101EEC000223B3E07B68012283F83C207B6802224A
:101EFC0083F83D207B681B689B68FB60FB6823F0C4
:101F0C007703FB60FB6823F47F43FB607B681B68F3
:101F1C00FA689A603B681B68B3F5005F3ED0B3F576
:101F2C00005F00F28780B3F5805F00F08580B3F529
:101F3C00805F7FD8702B1AD0702B7BD8602B50D041
:101F4C00602B77D8502B3CD0502B73D8402B58D0CB
:101F5C00402B6FD8302B64D0302B6BD8202B60D01B
:101F6C00202B67D8002B5CD0102B5AD062E07B68FA
:101F7C0018683B6899683B685A683B68DB6800F0F6
:101F8C005CF97B681B689B68FB60FB6843F077031C
:101F9C00FB607B681B68FA689A604EE07B68186887
:101FAC003B6899683B685A683B68DB6800F045F908
:101FBC007B681B689A687B681B6842F480429A6055
:101FCC003BE07B6818683B6859683B68DB681A46DD
:101FDC0000F0BCF87B681B685021184600F013F920
:101FEC002BE07B6818683B6859683B68DB681A46CD
:101FFC0000F0DAF87B681B686021184600F003F9E2
:10200C001BE07B6818683B6859683B68DB681A46BC
:10201C0000F09CF87B681B684021184600F0F3F830
:10202C000BE07B681A683B681B681946104600F089
:10203C00EAF802E000BF00E000BF7B68012283F8F1
:10204C003D207B68002283F83C2000231846103783
:10205C00BD4680BD80B483B000AF786000BF0C3744
:10206C00BD4680BC704780B483B000AF786000BFC1
:10207C000C37BD4680BC704780B483B000AF78602D
:10208C0000BF0C37BD4680BC704780B483B000AF36
:10209C00786000BF0C37BD4680BC704780B485B0FB
:1020AC0000AF786039607B681B68FB607B68254AF1
:1020BC00934207D07B68B3F1804F03D07B68224AF0
:1020CC00934208D1FB6823F07003FB603B685B68AC
:1020DC00FA681343FB607B681A4A934207D07B680B
:1020EC00B3F1804F03D07B68174A934208D1FB6849
:1020FC0023F44073FB603B68DB68FA681343FB60B6
:10210C00FB6823F080023B685B691343FB607B68D0
:10211C00FA681A603B689A687B68DA623B681A68EE
:10212C007B689A627B68074A934203D13B681A69C1
:10213C007B681A637B6801225A6100BF1437BD4665
:10214C0080BC7047002C01400004004080B487B074
:10215C0000AFF860B9607A60FB681B6A7B61FB6852
:10216C001B6A23F00102FB681A62FB689B693B61E6
:10217C003B6923F0F0033B617B681B013A69134315
:10218C003B617B6923F00A037B617A69BB6813436B
:10219C007B61FB683A699A61FB687A691A6200BFD5
:1021AC001C37BD4680BC704780B487B000AFF86068
:1021BC00B9607A60FB681B6A23F01002FB681A6234
:1021CC00FB689B697B61FB681B6A3B617B6923F441
:1021DC0070437B617B681B037A6913437B613B69AA
:1021EC0023F0A0033B61BB681B013A6913433B61BD
:1021FC00FB687A699A61FB683A691A6200BF1C37FE
:10220C00BD4680BC704780B485B000AF7860396043
:10221C007B689B68FB60FB6823F07003FB603A688B
:10222C00FB68134343F00703FB607B68FA689A6012
:10223C0000BF1437BD4680BC704780B487B000AF78
:10224C00F860B9607A603B60FB689B687B617B6976
:10225C0023F47F437B613B681A027B681A43BB689B
:10226C0013437A6913437B61FB687A699A6000BFF8
:10227C001C37BD4680BC704780B485B000AF786019
:10228C0039607B6893F83C30012B01D1022341E08B
:10229C007B68012283F83C207B68022283F83D2076
:1022AC007B681B685B68FB607B681B689B68BB601A
:1022BC00FB6823F07003FB603B681B68FA681343F0
:1022CC00FB607B681B68FA685A607B681B68144A61
:1022DC00934209D07B681B68B3F1804F04D07B68B4
:1022EC001B68104A93420CD1BB6823F08003BB607F
:1022FC003B685B68BA681343BB607B681B68BA6851
:10230C009A607B68012283F83D207B68002283F869
:10231C003C20002318461437BD4680BC704700BFD4
:10232C00002C01400004004080B483B000AF786002
:10233C0000BF0C37BD4680BC704780B483B000AF83
:10234C00786000BF0C37BD4680BC704780B582B04A
:10235C0000AF78607B68002B01D101233FE07B68E4
:10236C0093F83D30DBB2002B06D17B68002283F85A
:10237C003C207868FEF790FA7B68242283F83D2095
:10238C007B681B68DA687B681B6822F40052DA6091
:10239C00786800F049FB7B681B681A697B681B68CE
:1023AC0022F490421A617B681B685A697B681B682F
:1023BC0022F02A025A617B681B68DA687B681B680A
:1023CC0042F40052DA607B6800221A647B68202297
:1023DC0083F83D207B68202283F83E20002318469A
:1023EC000837BD4680BD000080B58AB000AF78606C
:1023FC007B681B681B687B627B681B68DB683B62C5
:10240C007B681B685B69FB610023BB6100237B61FC
:10241C007B6A03F00F03BB61BB69002B0DD17B6A98
:10242C0003F02003002B08D03B6A03F02003002BA1
:10243C0003D0786800F04FFA7BE1BB69002B00F009
:10244C00B180FB6903F00103002B05D13B6A03F457
:10245C009073002B00F0A6807B6A03F00103002B25
:10246C000AD03B6A03F48073002B05D07B681B6C8D
:10247C0043F001027B681A647B6A03F00403002BAF
:10248C000AD0FB6903F00103002B05D07B681B6CA1
:10249C0043F002027B681A647B6A03F00203002B90
:1024AC000AD0FB6903F00103002B05D07B681B6C81
:1024BC0043F004027B681A647B6A03F00803002B68
:1024CC000FD03B6A03F02003002B04D1FB6903F00F
:1024DC000103002B05D07B681B6C43F008027B6862
:1024EC001A647B681B6C002B00F01E817B6A03F066
:1024FC002003002B07D03B6A03F02003002B02D0F3
:10250C00786800F0E8F97B681B685B6903F04003AE
:10251C00002B14BF01230023DBB27B617B681B6C97
:10252C0003F00803002B02D17B69002B31D07868B3
:10253C0000F02AF97B681B685B6903F04003002BF1
:10254C0023D07B681B685A697B681B6822F04002A9
:10255C005A617B689B6B002B13D07B689B6B764A14
:10256C005A637B689B6B1846FEF7D0FC0346002B26
:10257C0016D07B689B6B5B6B7A68926B10469847A6
:10258C000EE0786800F0ECF80AE0786800F0E8F803
:10259C0006E0786800F0E4F87B6800221A64C3E077
:1025AC0000BFC1E07B681B6B012B40F0A1807B6AF4
:1025BC0003F01003002B00F09B803B6A03F0100328
:1025CC00002B00F095800023FB607B681B681B6868
:1025DC00FB607B681B685B68FB60FB687B681B6847
:1025EC005B6903F04003002B4ED07B689B6B1B6830
:1025FC005B683B823B8A002B00F098807B689B8D4C
:10260C003A8A9A4280F092807B683A8ADA857B68B3
:10261C009B6B9B69202B2BD07B681B68DA687B68D3
:10262C001B6822F48072DA607B681B685A697B68CD
:10263C001B6822F001025A617B681B685A697B682F
:10264C001B6822F040025A617B68202283F83E20EE
:10265C007B6800221A637B681B68DA687B681B68DE
:10266C0022F01002DA607B689B6B1846FEF713FCB5
:10267C007B689A8D7B68DB8D9BB2D31A9BB2194613
:10268C00786800F076F851E07B689A8D7B68DB8D7A
:10269C009BB2D31A7B827B68DB8D9BB2002B47D01D
:1026AC007B8A002B44D07B681B68DA687B681B68CC
:1026BC0022F49072DA607B681B685A697B681B682D
:1026CC0022F001025A617B68202283F83E207B684D
:1026DC0000221A637B681B68DA687B681B6822F02F
:1026EC001002DA607B8A1946786800F042F81FE025
:1026FC007B6A03F08003002B08D03B6A03F0800355
:10270C00002B03D0786800F07FF812E07B6A03F0AE
:10271C004003002B0DD03B6A03F04003002B08D084
:10272C00786800F0C0F804E000BF02E000BF00E0F1
:10273C0000BF2837BD4680BDED27000880B483B0AC
:10274C0000AF786000BF0C37BD4680BC704780B4CA
:10275C0083B000AF786000BF0C37BD4680BC7047BB
:10276C0080B483B000AF786000BF0C37BD4680BC2E
:10277C00704780B483B000AF78600B467B8000BF9D
:10278C000C37BD4680BC704780B483B000AF786016
:10279C007B681B68DA687B681B6822F49072DA60CD
:1027AC007B681B685A697B681B6822F001025A61BE
:1027BC007B681B6B012B07D17B681B68DA687B6815
:1027CC001B6822F01002DA607B68202283F83E201E
:1027DC007B6800221A6300BF0C37BD4680BC704773
:1027EC0080B584B000AF78607B685B6AFB60FB6887
:1027FC000022DA85FB680022DA84F868FFF7B0FF64
:10280C0000BF1037BD4680BD80B485B000AF786086
:10281C007B6893F83D30DBB2212B3ED17B689B6803
:10282C00B3F5805F14D17B681B69002B10D17B68DA
:10283C001B6AFB60FB681B881A467B681B68C2F32B
:10284C0008025A607B681B6A9A1C7B681A6208E053
:10285C007B681B6A591C7A6811621A787B681B6842
:10286C005A607B68DB8C9BB2013B9BB27A68194641
:10287C00D184002B0FD17B681B68DA687B681B68DE
:10288C0022F08002DA607B681B68DA687B681B6860
:10289C0042F04002DA60002300E0022318461437AD
:1028AC00BD4680BC704780B582B000AF78607B6855
:1028BC001B68DA687B681B6822F04002DA607B6870
:1028CC00202283F83D207868FFF738FF0023184654
:1028DC000837BD4680BD80B586B000AF78607B6898
:1028EC0093F83E30DBB2222B40F099807B689B68DA
:1028FC00B3F5805F17D17B681B69002B13D10023C4
:10290C007B617B689B6A3B617B681B685B689BB2E5
:10291C00C3F308039AB23B691A807B689B6A9A1CC2
:10292C007B689A6226E07B689B6A7B6100233B6133
:10293C007B689B68B3F5805F07D07B689B68002B36
:10294C000AD17B681B69002B06D17B681B685B680E
:10295C00DAB27B691A7008E07B681B685B68DBB2D3
:10296C0003F07F03DAB27B691A707B689B6A5A1C8E
:10297C007B689A627B68DB8D9BB2013B9BB27A6869
:10298C001946D185002B48D17B681B68DA687B68B7
:10299C001B6822F02002DA607B681B68DA687B68AF
:1029AC001B6822F48072DA607B681B685A697B684A
:1029BC001B6822F001025A617B68202283F83E20BA
:1029CC007B681B6B012B23D17B6800221A637B680D
:1029DC001B68DA687B681B6822F01002DA607B687F
:1029EC001B681B6803F01003102B0AD10023FB603B
:1029FC007B681B681B68FB607B681B685B68FB6003
:102A0C00FB687B689B8D19467868FFF7B2FE02E085
:102A1C007868FFF79CFE002302E0002300E002230D
:102A2C0018461837BD4680BD80B584B000AF7860BD
:102A3C007B681B681B6923F440517B68DA687B68F0
:102A4C001B680A431A617B689A687B681B691A4386
:102A5C007B685B691343BB607B681B68DB6823F492
:102A6C00B05323F00C037A681268B9680B43D36037
:102A7C007B681B685B6923F440717B689A697B688F
:102A8C001B680A435A617B681B682C4A934203D12A
:102A9C00FFF746F8F86002E0FFF72EF8F860FA68E6
:102AAC0013469B0013449A001A447B685B689B0096
:102ABC00B2FBF3F3224AA2FB03235B091901FA6868
:102ACC0013469B0013449A001A447B685B689B0076
:102ADC00B2FBF3F21A4BA3FB02035B09642000FB6D
:102AEC0003F3D31A1B013233154AA2FB03235B09F0
:102AFC0003F0F0031944FA6813469B0013449A0040
:102B0C001A447B685B689B00B2FBF3F20C4BA3FB93
:102B1C0002035B09642000FB03F3D31A1B0132335D
:102B2C00074AA2FB03235B0903F00F027B681B68B7
:102B3C000A449A6000BF1037BD4680BD0038014082
:102B4C001F85EB51014B1868704700BF0C0000202B
:102B5C0070B500260C4D0D4C641BA410A64209D177
:102B6C0000F0F8FF00260A4D0A4C641BA410A64284
:102B7C0005D170BD55F8043B98470136EEE755F882
:102B8C00043B98470136F2E71C3D00081C3D000849
:102B9C001C3D0008203D000803460244934200D12E
:102BAC00704703F8011BF9E70FB40A4B13B51C6807
:102BBC0024B1A36913B9204600F05EFA05AB204698
:102BCC00049AA168019300F029FC02B0BDE8104002
:102BDC0004B070470C00002070B50E46054618B1C5
:102BEC0083690BB900F048FAAB69AC6813B9284695
:102BFC0000F042FA2C4B9C4220D16C68636EDB07D0
:102C0C0005D4A389980502D4A06D00F0D3FAA3894A
:102C1C0019071DD52369DBB1013EA36816F8011F06
:102C2C00013BA36039BB002B38DA22460A21284627
:102C3C0000F048F8013011D00A2511E01B4B9C42E2
:102C4C0001D1AC68DAE71A4B9C4208BFEC68D5E7B7
:102C5C002146284600F088F80028DDD04FF0FF35DB
:102C6C00636EDA0705D4A3899B0502D4A06D00F02E
:102C7C00A2FA284670BD002B04DAA2699A4206DC3F
:102C8C000A2904D023685A1C22601970C5E7224611
:102C9C00284600F017F80130BFD1DFE70A2523687A
:102CAC005A1C22601D70DBE7A83C0008C83C0008D9
:102CBC00883C0008024B01461868FFF78DBF00BF27
:102CCC000C000020F8B50E461446054618B1836971
:102CDC000BB900F0D1F9214B9C422BD16C68A36944
:102CEC00A360A3891A072FD523696BB323692068C6
:102CFC00F6B2C01A63693746834204DC2146284683
:102D0C0000F026F930BBA3680130013BA3602368B7
:102D1C005A1C22601E706369834204D0A389DB07AE
:102D2C0006D50A2E04D12146284600F011F988B99F
:102D3C003846F8BD0A4B9C4201D1AC68CFE7094B31
:102D4C009C4208BFEC68CAE72146284600F00CF804
:102D5C000028CBD04FF0FF37EAE700BFA83C0008B3
:102D6C00C83C0008883C0008324B70B51D6806460C
:102D7C000C4625B1AB6913B9284600F07DF92E4BF2
:102D8C009C420FD16C68A389B4F90C2019072CD480
:102D9C00DD0611D40923336042F040034FF0FF30BD
:102DAC00A3813EE0254B9C4201D1AC68EBE7244B60
:102DBC009C4208BFEC68E6E7580712D5616B41B13D
:102DCC0004F14403994202D0304600F059FA002332
:102DDC006363A38923F02403A38100236360236925
:102DEC002360A38943F00803A38123694BB9A3890A
:102DFC0003F42073B3F5007F03D02146304600F076
:102E0C00FFF9A089B4F90C2010F001030AD00023BB
:102E1C00A36063695B42A361236943B910F080002E
:102E2C00BAD170BD810758BF6369A360F4E7002075
:102E3C00F7E700BF0C000020A83C0008C83C0008C5
:102E4C00883C00088A892DE9F041054610070C469C
:102E5C0058D44B68002B05DC0B6C002B02DC0020DB
:102E6C00BDE8F081E66A002EF9D0002312F48052FE
:102E7C002F682B6032D0606DA3895A0705D5636823
:102E8C00C01A636B0BB1236CC01A00230246E66AAE
:102E9C002846216AB047431CA38906D129681D29FD
:102EAC002CD82A4ACA40D60728D50022626022694B
:102EBC00D904226004D5421C01D12B6803B960658A
:102ECC00616B2F600029CAD004F14403994202D0EF
:102EDC00284600F0D5F900206063C1E7216A012380
:102EEC002846B047411CC7D12B68002BC4D01D2BE2
:102EFC0001D0162B01D12F60B1E7A38943F0400319
:102F0C00A381ADE70F69002FA9D0930718BF002349
:102F1C000E6808BF4B69A6EB07080F608B60B8F111
:102F2C00000F9CDD43463A462846216AA66AB04704
:102F3C00002806DCA3894FF0FF3043F04003A38147
:102F4C008EE70744A8EB0008E9E700BF010040202A
:102F5C0038B50B6905460C4613B90025284638BD13
:102F6C0018B183690BB900F087F8144B9C421BD144
:102F7C006C68B4F90C30002BEFD0626ED00704D41F
:102F8C00990502D4A06D00F015F928462146FFF7EB
:102F9C0059FF636E0546DA07E0D4A3899B05DDD49F
:102FAC00A06D00F008F9D9E7054B9C4201D1AC6843
:102FBC00DFE7044B9C4208BFEC68DAE7A83C00084A
:102FCC00C83C0008883C0008002310B50446C0E942
:102FDC000033C0E90433836081814366C28183611D
:102FEC00194608225C30FFF7D7FD054B246263625B
:102FFC00044BA362044BE362044B236310BD00BF7C
:10300C00D5390008F73900082F3A0008533A000860
:10301C00014900F0AFB800BF5D2F000870B56825FE
:10302C004A1E55430E4605F1740100F075F904462D
:10303C0040B10021C0E900160C30A06005F1680217
:10304C00FFF7AAFD204670BD014800F0B3B800BFE1
:10305C0088010020014800F0AEB800BF88010020B4
:10306C00014800F0A7B800BF83010020014800F020
:10307C00A2B800BF8301002010B50446FFF7F0FF93
:10308C00A3691BB1BDE81040FFF7F0BFC4E91233D0
:10309C002365134B134A1B68A262A34208BF01238A
:1030AC00204608BFA36100F01FF86060204600F0C6
:1030BC001BF8A060204600F017F800220421E06005
:1030CC006068FFF781FF01220921A068FFF77CFFF0
:1030DC0002221221E068FFF777FF0123A361D1E7F9
:1030EC00843C00081D300008F8B50746FFF7ACFF1C
:1030FC001E4B1E68B36913B93046FFF7BDFF483647
:10310C00D6E90134013B03D533680BB33668F7E7D6
:10311C00B4F90C50D5B9164B04F15800E360656650
:10312C0000F047F8FFF796FF08222946C4E901553D
:10313C00C4E904552560A56104F15C00FFF72CFD82
:10314C00C4E90D55C4E912552046F8BD6834D9E7D9
:10315C0004213846FFF762FF044630600028D5D1C1
:10316C00FFF778FF0C233B60EEE700BF843C0008C0
:10317C000100FFFF2DE9F84306468846002700F1C1
:10318C004804D4E90195B9F1010905D52468002C4E
:10319C00F7D13846BDE8F883AB89012B07D9B5F9CF
:1031AC000E30013303D029463046C04707436835FB
:1031BC00E9E770477047704770B50E46B1F90E10CD
:1031CC00144600291D4696B007DA00232B60B389FC
:1031DC001A0610D44FF480630EE06A4600F05AFCD5
:1031EC000028F2DB019A02F47042A2F500535A4215
:1031FC005A412A60EEE740230020236016B070BDD0
:10320C008B8973B59D0706460C4607D504F1470319
:10321C00236023610123636102B070BD6A4601AB78
:10322C00FFF7CAFF00990546304600F075F848B91B
:10323C00B4F90C309A05EFD423F0030343F00203E6
:10324C00A381E3E70D4BB362A389206043F08003B5
:10325C00A381009B20616361019B5BB13046B4F993
:10326C000E1000F029FC28B1A38923F0030343F0CE
:10327C000103A381A0890543A581CDE71D3000087A
:10328C0038B50546002943D051F8043C0C1F002BDF
:10329C00B8BFE41800F040FC1E4A1368104633B95E
:1032AC00636014602846BDE8384000F03BBCA34284
:1032BC000AD921686218934201BF1A685B685218D8
:1032CC00226063600460EDE71A465B680BB1A342B1
:1032DC00FAD911685018A0420BD12068014450183B
:1032EC0083421160DED118685B6801441160536041
:1032FC00D8E702D90C232B60D4E7206821188B4225
:10330C0001BF19685B680918216063605460C9E7E4
:10331C0038BD00BF94000020F8B5CD1C25F0030586
:10332C0008350C2D38BF0C25002D064601DBA942B3
:10333C0003D90C2333600020F8BD00F0EDFB2149CC
:10334C000A6814469CB9204F3B6823B92146304685
:10335C0000F02AFB38602946304600F025FB431C60
:10336C0023D10C233046336000F0DCFBE3E7236809
:10337C005B1B17D40B2B03D923601C44256004E082
:10338C006368A2420CBF0B605360304600F0CAFB6E
:10339C0004F10B00231D20F00700C21ACCD01B1A1D
:1033AC00A350C9E722466468CCE7C41C24F003048C
:1033BC00A042E3D0211A304600F0F6FA0130DDD1FC
:1033CC00CFE700BF9400002098000020936810B451
:1033DC00013B002B936007DA9469A34201DB0A29B5
:1033EC0002D110BCFFF76EBC1368581C106019702A
:1033FC00084610BC7047F8B506460F461446D5185B
:10340C00AC4201D1002007E03A46304614F8011BCB
:10341C00FFF7DCFF431CF3D1F8BD00002DE9F04FA2
:10342C000D461446984606469DB018B183690BB9F3
:10343C00FFF722FE894B9D421BD175686B6ED90735
:10344C0005D4AB899A0502D4A86DFFF7B3FEAB89FE
:10345C001B0701D52B69EBB929463046FFF784FCD5
:10346C00C0B16B6EDC070ED54FF0FF301DB0BDE860
:10347C00F08F7B4B9D4201D1B568DFE7794B9D42C4
:10348C0008BFF568DAE7AB899805EDD4A86DFFF7AE
:10349C0092FEE9E70023099320238DF8293030238D
:1034AC004FF00109CDF80C80DFF8BC818DF82A3083
:1034BC0023469A4613F8012B0AB1252AF9D1BAEB07
:1034CC00040B0BD05B46224629463046FFF793FF90
:1034DC00013000F0AA80099A5A4409929AF80030F7
:1034EC00002B00F0A28000234FF0FF32CDE9052322
:1034FC000AF1010A049307938DF853301A9354463A
:10350C00052214F8011B584800F0F8FA049AD8B9AF
:10351C00D10644BF20238DF85330130744BF2B230F
:10352C008DF853309AF800302A2B15D054460020D1
:10353C004FF00A0C079A214611F8013B303B092B3E
:10354C004ED9B0B1079214E0A0EB080309FA03F3CB
:10355C001343A2460493D2E7039B191D1B680391E6
:10356C00002BBBBF5B4242F0020207930793B8BF2C
:10357C00049223782E2B0CD163782A2B35D1039B04
:10358C0002341A1D1B680392002BB8BF4FF0FF3397
:10359C000593DFF8E4A003225046217800F0AEFA40
:1035AC0040B14023A0EB0A0003FA00F0049B013465
:1035BC000343049314F8011B06222C488DF82810A1
:1035CC0000F09CFA00283FD0294B1BBB039B073310
:1035DC0023F0070308330393099B3B44099367E7E4
:1035EC000C4601200CFB0232A5E700234FF00A0C1D
:1035FC00194601340593204610F8012B303A092A5C
:10360C0003D9002BC5D00591C3E7044601230CFB5D
:10361C000121F0E703AB00932A463046154B04A971
:10362C00AFF300800746781CD6D16B6ED90705D452
:10363C00AB899A0502D4A86DFFF7BDFDAB895B067B
:10364C003FF512AF099811E703AB00932A463046B9
:10365C00084B04A900F082F8E4E700BFA83C00087E
:10366C00C83C0008883C0008E83C0008F23C000814
:10367C000000000003340008EE3C00082DE9F04780
:10368C00164699468A680B6907469342B8BF13469B
:10369C00336091F843200C46DDF820800AB10133E9
:1036AC0033602368990642BF336802333360256860
:1036BC0015F0060506D104F1190AE36832689B1A65
:1036CC00AB4228DC94F84320131E226818BF012358
:1036DC0092062DD44946384604F14302C0470130C6
:1036EC0020D02368E56803F00603042B18BF0025DF
:1036FC0032684FF00006A36808BFAD1A226908BFF4
:10370C0025EAE5759342C4BF9B1AED181A34B542ED
:10371C001AD1002008E00123524649463846C047DA
:10372C00013003D14FF0FF30BDE8F0870135C4E71D
:10373C003020E11881F843005A1C94F845102244BB
:10374C00023382F84310C5E7012322464946384626
:10375C00C0470130E6D00136D9E700002DE9FF471C
:10376C000C46277E9146782F80469A460C9904F198
:10377C00430207D8622F0AD8002F00F0D980582FA7
:10378C0000F0A48004F1420684F842703AE0A7F1FC
:10379C006303152BF6D801A050F823F0013800086C
:1037AC001538000891370008913700089137000848
:1037BC009137000815380008913700089137000838
:1037CC009137000891370008233900084538000864
:1037DC000539000891370008913700084539000871
:1037EC0091370008453800089137000891370008D8
:1037FC000D3900080B6804F142061A1D1B680A609B
:10380C0084F842300123A4E0256808682E0600F1F4
:10381C0004030AD505680B60002D03DA2D236D42D5
:10382C0084F843300A235E4819E015F0400F056810
:10383C000B6018BF2DB2EFE70B682568181D0860E8
:10384C00280601D51D6802E06906FBD51D886F2F7F
:10385C000CBF08230A235248002184F843106668E1
:10386C00002EA8BF2168A660A4BF21F0040121602E
:10387C000DB9002E4DD01646B5FBF3F103FB1157D5
:10388C00C75D06F8017D2F46BB420D46F4D9082BC7
:10389C000BD12368DF0708D5236961689942DEBF25
:1038AC00302306F8013C06F1FF36921B22614B4691
:1038BC0021464046CDF800A003AAFFF7DFFE0130F9
:1038CC004CD14FF0FF3004B0BDE8F087344884F899
:1038DC0045700E68236856F8045B1F060E6014D5FD
:1038EC00D90744BF43F0200323601DB9236823F09C
:1038FC00200323601023AFE7236843F020032360E9
:10390C007823284884F84530E3E75E0648BFADB21B
:10391C00E6E71646BBE70B6826681D1D60690D605F
:10392C0035061B6801D5186002E07106FBD51880BE
:10393C00002316462361BAE70B681A1D0A601E683D
:10394C0000213046626800F0D9F808B1801B606035
:10395C0063682361002384F84330A8E73246494664
:10396C0040462369D0470130ABD023689B0713D462
:10397C00E068039B9842B8BF1846A4E7012332467F
:10398C0049464046D04701309BD00135E368039946
:10399C005B1AAB42F2DCEBE7002504F11906F5E704
:1039AC00F93C00080A3D000838B50023054D0446D3
:1039BC0008462B60FDF768F8431C02D12B6803B155
:1039CC00236038BD8C01002010B50C46B1F90E10E7
:1039DC0000F0AEF80028ABBF636DA3891B1823F46D
:1039EC008053ACBF6365A38110BD2DE9F0411F4628
:1039FC008B890546DB050C46164605D502230022AD
:103A0C00B1F90E1000F068F8A389324623F4805304
:103A1C00A38128463B46B4F90E10BDE8F04100F0F6
:103A2C0017B810B50C46B1F90E1000F055F8431C40
:103A3C00A38915BF606523F4805343F48053A3819D
:103A4C0018BFA38110BDB1F90E1000F013B800001F
:103A5C0038B50446084611460022054D2A601A4620
:103A6C00FCF7C5FF431C02D12B6803B1236038BDA2
:103A7C008C01002038B50023054D044608462B6008
:103A8C00FCF7D1FF431C02D12B6803B1236038BD76
:103A9C008C01002038B50023064D0446084611461B
:103AAC002B60FCF7CBFF431C02D12B6803B12360C6
:103ABC0038BD00BF8C01002038B50023054D0446ED
:103ACC0008462B60FCF7C9FF431C02D12B6803B1DD
:103ADC00236038BD8C01002038B5044608461146D9
:103AEC000022054D2A601A46FCF7C1FF431C02D187
:103AFC002B6803B1236038BD8C010020034610B540
:103B0C00C9B202449342184601D1002003E0047864
:103B1C0001338C42F6D110BD0148FFF74BBB00BFFF
:103B2C00840100200148FFF746BB00BF8401002040
:103B3C0038B50446084611460022054D2A601A463F
:103B4C00FCF738FF431C02D12B6803B1236038BD4E
:103B5C008C010020F8B500BFF8BC08BC9E4670472D
:0C3B6C00F8B500BFF8BC08BC9E467047CE
:103B78004E756D626572206F66207461736B732079
:103B88003D2025640D0A00004E6F207461736B2080
:103B9800746F20646973706C61790D002D2D696EE6
:103BA800646578203D2025643A2000005461736BD9
:103BB8004944203D202564202D2044656C617920EE
:103BC8003D20256C750D0A00496E7365727420617D
:103BD8007420706F732025640D0A00004552524FFF
:103BE800523A20544F4F204D414E59205441534B87
:103BF80053210D004552524F523A2043414E4E4FE9
:103C0800542044454C455445205441534B210D0004
:103C18004552524F523A204E4F205441534B204167
:103C28005641494C41424C45210D00000D0A3E20A9
:103C380052756E207461736B2028494420256429CD
:103C480020617420696E646578203D2025640D0A22
:103C58000000000002030405060708090A0B0C0D02
:103C68000E0F101000000000000000000102030405
:103C780006070809000000000102030410000020E4
:103C8800000000000000000000000000000000002C
:103C9800000000000000000000000000000000001C
:103CA800000000000000000000000000000000000C
:103CB80000000000000000000000000000000000FC
:103CC80000000000000000000000000000000000EC
:103CD80000000000000000000000000000000000DC
:103CE800232D302B2000686C4C00656667454647DD
:103CF8000030313233343536373839414243444560
:103D080046003031323334353637383961626364CE
:043D180065660000DC
:043D1C003101000869
:043D20000D01000889
:103D24000024F40010000000010000001000002036
:103D340000000000A83C0008C83C0008883C0008BB
:103D4400000000000000000000000000000000006F
:103D5400000000000000000000000000000000005F
:103D6400000000000000000000000000000000004F
:103D7400000000000000000000000000000000003F
:103D8400000000000000000000000000000000002F
:0400000508000B796B
:00000001FF
